:020000040800F2
:1000000000000220CD8000084F150008551500089B
:100010005B15000861150008671500080000000066
:10002000000000000000000000000000D17C00087B
:100030006D15000800000000217F0008B57700085A
:100040001D8100081D8100081D8100081D81000818
:100050001D8100081D8100081D8100081D81000808
:100060001D8100081D8100081D8100081D810008F8
:100070001D8100081D8100081D8100081D810008E8
:100080001D8100081D8100081D8100081D810008D8
:100090001D8100081D8100081D8100081D810008C8
:1000A0001D8100081D8100081D8100081D810008B8
:1000B0001D8100081D8100081D8100081D810008A8
:1000C0001D8100081D8100081D8100081D81000898
:1000D0001D8100081D8100081D8100081D81000888
:1000E0001D8100081D8100081D8100081D81000878
:1000F0001D8100087D1500081D8100081D81000874
:100100001D8100081D8100081D8100081D81000857
:100110001D8100081D8100081D8100081D81000847
:100120001D8100081D8100081D8100081D81000837
:100130001D8100081D8100081D8100081D81000827
:100140001D8100081D8100081D810008911500080F
:100150001D8100081D8100081D8100081D81000807
:100160001D8100081D8100081D8100081D810008F7
:100170001D8100081D8100081D810008000000008D
:080180001D8100081D8100082B
:1001900081F0004102E000BF83F0004330B54FEA38
:1001A00041044FEA430594EA050F08BF90EA020FA5
:1001B0001FBF54EA000C55EA020C7FEA645C7FEA38
:1001C000655C00F0E2804FEA5454D4EB5555B8BF5B
:1001D0006D420CDD2C4480EA020281EA030382EACC
:1001E000000083EA010180EA020281EA0303362D5E
:1001F00088BF30BD11F0004F4FEA01314FF4801C31
:100200004CEA113102D0404261EB410113F0004F42
:100210004FEA03334CEA133302D0524263EB4303F9
:1002200094EA050F00F0A780A4F10104D5F1200E97
:100230000DDB02FA0EFC22FA05F2801841F10001F2
:1002400003FA0EF2801843FA05F359410EE0A5F1C6
:1002500020050EF1200E012A03FA0EFC28BF4CF0F7
:10026000020C43FA05F3C01851EBE37101F00045AD
:1002700007D54FF0000EDCF1000C7EEB00006EEBBA
:100280000101B1F5801F1BD3B1F5001F0CD3490844
:100290005FEA30004FEA3C0C04F101044FEA44529B
:1002A00012F5800F80F09A80BCF1004F08BF5FEA22
:1002B000500C50F1000041EB045141EA050130BD02
:1002C0005FEA4C0C404141EB0101013C28BFB1F514
:1002D000801FE9D291F0000F04BF01460020B1FA5F
:1002E00081F308BF2033A3F10B03B3F120020CDA32
:1002F0000C3208DD02F1140CC2F10C0201FA0CF010
:1003000021FA02F10CE002F11402D8BFC2F1200C74
:1003100001FA02F120FA0CFCDCBF41EA0C0190402A
:10032000E41AA2BF01EB0451294330BD6FEA040473
:100330001F3C1CDA0C340EDC04F11404C4F120025E
:1003400020FA04F001FA02F340EA030021FA04F370
:1003500045EA030130BDC4F10C04C4F1200220FAC7
:1003600002F001FA04F340EA0300294630BD21FA05
:1003700004F0294630BD94F0000F83F4801306BFCB
:1003800081F480110134013D4EE77FEA645C18BFBF
:100390007FEA655C29D094EA050F08BF90EA020F56
:1003A00005D054EA000C04BF1946104630BD91EA4E
:1003B000030F1EBF0021002030BD5FEA545C05D151
:1003C0004000494128BF41F0004130BD14F5800490
:1003D0003CBF01F5801130BD01F0004545F0FE4104
:1003E00041F470014FF0000030BD7FEA645C1ABF39
:1003F000194610467FEA655C1CBF0B46024650EA70
:10040000013406BF52EA033591EA030F41F400219B
:1004100030BD00BF90F0000F04BF0021704730B521
:100420004FF4806404F132044FF000054FF00001F6
:1004300050E700BF90F0000F04BF0021704730B5B7
:100440004FF4806404F1320410F0004548BF40428C
:100450004FF000013EE700BF42004FEAE2014FEAE1
:1004600031014FEA02701FBF12F07F4393F07F4FBC
:1004700081F06051704732F07F4208BF704793F0BF
:100480007F4F04BF41F40021704730B54FF46074D2
:1004900001F0004521F000411CE700BF50EA0102D5
:1004A00008BF704730B54FF000050AE050EA01027E
:1004B00008BF704730B511F0004502D5404261EBEE
:1004C00041014FF4806404F132045FEA915C3FF42F
:1004D000D8AE4FF003025FEADC0C18BF03325FEACC
:1004E000DC0C18BF033202EBDC02C2F1200300FA7D
:1004F00003FC20FA02F001FA03FE40EA0E0021FAA2
:1005000002F11444BDE600BF4FF0FF3C06E000BF1F
:100510004FF0010C02E000BF4FF0010C4DF804CD8C
:100520004FEA410C7FEA6C5C4FEA430C18BF7FEA4C
:100530006C5C1BD001B050EA410C0CBF52EA430C7A
:1005400091EA030F02BF90EA020F0020704710F1FA
:10055000000F91EA030F58BF994208BF90422CBF89
:10056000D8176FEAE37040F0010070474FEA410C82
:100570007FEA6C5C02D150EA013C07D14FEA430CA0
:100580007FEA6C5CD6D152EA033CD3D05DF8040B11
:10059000704700BF8446104662468C461946634643
:1005A00000E000BF01B5FFF7B7FF002848BF10F11A
:1005B000000F01BD4DF808EDFFF7F4FF0CBF01205F
:1005C00000205DF808FB00BF4DF808EDFFF7EAFFDB
:1005D00034BF012000205DF808FB00BF4DF808ED96
:1005E000FFF7E0FF94BF012000205DF808FB00BF8B
:1005F0004DF808EDFFF7CEFF94BF012000205DF815
:1006000008FB00BF4DF808EDFFF7C4FF34BF012021
:1006100000205DF808FB00BF53B94AB9002908BFA4
:1006200000281CBF4FF0FF314FF0FF3000F00CB836
:10063000ADF1080C6DE904CE07F072FDDDF804E0C1
:10064000DDE9022304B07047704700BF0348044B44
:10065000834202D0034B03B118477047C800002003
:10066000C8000020000000000548064B1B1AD90FE7
:1006700001EBA301491002D0034B03B118477047A7
:10068000C8000020C80000200000000010B5064C83
:10069000237843B9FFF7DAFF044B13B10448AFF3F3
:1006A00000800123237010BDC8000020000000005E
:1006B000BC85000808B5054B1BB105490548AFF3DB
:1006C0000080BDE80840FFF7CFBF00BF000000007A
:1006D000CC000020BC85000880B584B000AF7860F5
:1006E0007B681B68FB60FB680133BB6018E0FB683C
:1006F0009B00134A1344184600F0E8FC114B1B689A
:10070000002B13D1BB68012B03D0BB68022B03D095
:1007100005E000F0CDF903E000F036FA00E000BF9C
:10072000094B1B78DBB2002BE1D100E000BF0020B9
:1007300000F053FC002318461037BD4680BD00BFB3
:10074000F0000020200100200000002080B584B0CF
:1007500000AF7860224B1B681B68002B0CBF012385
:100760000023DBB21A461F4B1A7028E01E4800F027
:10077000ADFC0123FB6012E0194B1A68FB681344BF
:1007800004331B78002B07D1FB68013B9B00174A01
:100790001344184600F0B8FCFB680133FB60FB68AB
:1007A000022BE9DD00F016F90D4B1B681B68002BCE
:1007B00014BF01230023DBB21A460D4B1A70094BFC
:1007C0001B78DBB2002BD1D1786800F013F8002041
:1007D00000F003FC002318461037BD4680BD00BF63
:1007E0000086000800000020EC000020F00000203F
:1007F000E400002090B58BB004AF7860354B012247
:100800001A6000237B612CE07B699B00324A134411
:10081000184600F079FC0346002B0AD04FF0500335
:1008200083F31188BFF36F8FBFF34F8F3B6100BF1E
:10083000FEE77B699B00284A1344184600F082FCBF
:100840000346002B0AD04FF0500383F31188BFF307
:100850006F8FBFF34F8FFB6000BFFEE77B690133F3
:100860007B617B69012BCFDD00237B6122E01B498B
:100870007A691346DB009B1A9B000B44184A0392CB
:100880006C4603F1100207CA84E807000FCB00F0A2
:10089000AFFB0346002B0AD04FF0500383F31188BF
:1008A000BFF36F8FBFF34F8FBB6000BFFEE77B6965
:1008B00001337B617B69012BD9DD0A4B00221A7061
:1008C00000F0D5F9084800F01FFC002318461C373B
:1008D000BD4690BD20010020F00000202401002032
:1008E0001C01002000000020E800002080B582B03C
:1008F00000AF78603960144B27221A60124B262211
:100900005A6002F02FFB00F057FC00F0CFF900F026
:10091000A7FD00F0BBFC00F00BFD00F03FFD00F078
:1009200071FD0A4B1B6800221A6000F099F9022041
:10093000B6EE000A00F0E6F9054800F0C7FB002318
:1009400018460837BD4680BD5C01002000860008BF
:10095000E800002080B483B000AF786039607B6825
:100960003A689A6100BF0C37BD465DF8047B70475A
:1009700080B483B000AF786039603B681A047B684C
:100980009A6100BF0C37BD465DF8047B70470000DC
:1009900080B400AF0E4B5A790132D2B25A710C4B6F
:1009A0005B79022B02D90A4B00225A71084B9A79C3
:1009B0000132D2B29A71064B9B79042B02D9044BB7
:1009C00000229A7100BFBD465DF8047B704700BFEE
:1009D00070010020B0B586B000AFFFF7D9FF304BF3
:1009E0001B681846FFF726FD2E4BD3E90423FFF7BB
:1009F000EBFD0346002B07D0294B1B68002B03DBC4
:100A0000284BD3E9002303E04FF000024FF000032E
:100A1000C7E90223224B1B681846FFF70BFD04466B
:100A20000D46204BD3E902014FF000021E4BFFF7A9
:100A3000B3FB02460B4620462946FFF7D9FD034685
:100A4000002B03D0164B00221A6004E0144B1B68E5
:100A50000133134A1360154B7B604FF000024FF0D7
:100A60000003D7E90201FFF7A5FD0346002B03D1E0
:100A70004FF480637B6101E000237B617B69194651
:100A80007868FFF767FF7B69DB4303F480631946EF
:100A90007868FFF76DFF00BF1837BD46B0BD00BFD7
:100AA00064010020080000200000F03F0008024020
:100AB000B0B586B000AF304B5B681846FFF7BAFCA4
:100AC0002E4BD3E90C23FFF77FFD0346002B07D005
:100AD000294B5B68002B03DB284BD3E9082303E099
:100AE0004FF000024FF00003C7E90223224B5B687E
:100AF0001846FFF79FFC04460D46204BD3E90A0138
:100B00004FF000021E4BFFF747FB02460B46204604
:100B10002946FFF76DFD0346002B03D0164B00223C
:100B20005A6004E0144B5B680133134A5360154B61
:100B30007B604FF000024FF00003D7E90201FFF79E
:100B400039FD0346002B03D14FF400637B6101E0C4
:100B500000237B617B6919467868FFF7FBFE7B69A0
:100B6000DB4303F4006319467868FFF701FF00BF19
:100B70001837BD46B0BD00BF64010020080000204A
:100B80000000F03F00080240B0B586B000AF304B27
:100B90009B681846FFF74EFC2E4BD3E91423FFF752
:100BA00013FD0346002B07D0294B9B68002B03DB6A
:100BB000284BD3E9102303E04FF000024FF000036D
:100BC000C7E90223224B9B681846FFF733FC044613
:100BD0000D46204BD3E912014FF000021E4BFFF7E8
:100BE000DBFA02460B4620462946FFF701FD034685
:100BF000002B03D0164B00229A6004E0144B9B6834
:100C00000133134A9360154B7B604FF000024FF0A5
:100C10000003D7E90201FFF7CDFC0346002B03D107
:100C20004FF480537B6101E000237B617B691946AF
:100C30007868FFF78FFE7B69DB4303F48053194626
:100C40007868FFF795FE00BF1837BD46B0BD00BFFE
:100C500064010020080000200000F03F000802406E
:100C600080B400AF00BFBD465DF8047B704780B420
:100C700000AF00BFBD465DF8047B704780B584B00F
:100C800000AF786002F0A4F9F8607B68BB6000BF39
:100C900002F09EF90246FB68D31ABA689A42F7D866
:100CA00000BF00BF1037BD4680BD000080B400AF5C
:100CB00000BFBD465DF8047B704700BF80B582B0C1
:100CC00000AF7860034800F01FFA00BF0837BD4648
:100CD00080BD00BFEC00002080B582B000AF78601E
:100CE0007868FFF733FD00BF0837BD4680BD80B58B
:100CF00082B000AF78607868FFF7EEFC00BF08377D
:100D0000BD4680BD80B58CB000AF87ED010A38606C
:100D10000021894800F0C3F9B862BB6A002B0AD0F1
:100D20004FF0500383F31188BFF36F8FBFF34F8FE2
:100D30007B6200BFFEE70021804800F0B0F9B86296
:100D4000BB6A002B0AD04FF0500383F31188BFF326
:100D50006F8FBFF34F8F3B6200BFFEE7784B2822B7
:100D60001A61774B00229A61754B80229A82744BEC
:100D7000744A07CA03C31A7000227349704800F00E
:100D8000F9F8B862BB6A002B0AD04FF0500383F326
:100D90001188BFF36F8FBFF34F8FFB6100BFFEE77A
:100DA0000023FB6273E06949FB6AFA6A41F8232079
:100DB000FB6A9B00664A13440021184600F06FF955
:100DC000B862BB6A002B0AD04FF0500383F311883E
:100DD000BFF36F8FBFF34F8FBB6100BFFEE7FB6AAE
:100DE000C3F1270318465B49FA6A1346DB009B1AD6
:100DF0009B000B44103318605649FA6A1346DB0017
:100E00009B1A9B000B4410331B68002B0AD14FF038
:100E1000500383F31188BFF36F8FBFF34F8F7B6154
:100E200000BFFEE74B49FA6A1346DB009B1A9B00A2
:100E30000B44183300221A604649FA6A1346DB0055
:100E40009B1A9B000B44143380221A80FA6A1346C3
:100E5000DB009B1A9B003F4A9818FB6A9B003B4AA9
:100E600013441A463C4900F085F8B862BB6A002B6F
:100E70000AD04FF0500383F31188BFF36F8FBFF395
:100E80004F8F3B6100BFFEE7FB6A0133FB62FB6AE9
:100E9000012B88DD314B00221A60314B00221A6091
:100EA000D7ED017A9FED2F7A67EE877AFCEEE77A2D
:100EB00017EE902A2A4B5A60294B01229A60274B41
:100EC0001B681A46264BDA60274B284A92E8030033
:100ED00018600433198002330A0C1A702449204820
:100EE00000F098F8B862BB6A002B0AD04FF05003AC
:100EF00083F31188BFF36F8FBFF34F8FFB6000BF89
:100F0000FEE74FF47A71164800F0A5F8B862BB6AA4
:100F1000002B0AD04FF0500383F31188BFF36F8F7B
:100F2000BFF34F8FBB6000BFFEE705F05FFA00BF65
:100F30003037BD4680BD00BFEC000020E800002037
:100F400000010020D4850008D90C0008F80000201A
:100F5000F000002024010020EF0C00089801002080
:100F60007801002000007A4488010020E085000814
:100F7000BD0C000880B588B002AFF860B9607A6037
:100F8000FB68002B01D1012323E0F968FB68988AF4
:100F9000FB681B69FA681832019200937B6802466D
:100FA000B86805F02AF87861FB689B69002B0AD1C4
:100FB0004FF0500383F31188BFF36F8FBFF34F8F50
:100FC0003B6100BFFEE77B69012B14BF01230023B7
:100FD000DBB218461837BD4680BD80B582B000AF81
:100FE0007860002005F090F900BF0837BD4680BD4D
:100FF00084B080B500AF07F1080C8CE80F003B6AA5
:10100000184605F081F900231846BD46BDE880402A
:1010100004B0704790B585B002AF786039607B68E6
:1010200003F110007B6859687B689A687B68DC680C
:101030003B680093234606F05BF802467B681A6023
:101040007B681B68002B01D0002300E001231846B9
:101050000C37BD4690BD90B585B002AF7860396061
:101060007B68002B16D07B681B68002B12D07B6836
:101070001C6805F0D7FA02463B6800930023012163
:10108000204606F091F80346012B14BF01230023EC
:10109000DBB200E0012318460C37BD4690BD80B599
:1010A00082B000AF786039603B6819460A2004F0CE
:1010B000B8F902467B681A607B68002B01D00023D8
:1010C00000E0012318460837BD4680BD80B582B0D8
:1010D00000AF78607B68002B03D07B681B68002B17
:1010E00001D101230CE07B681B684FF0FF311846EB
:1010F00004F044FC0346012B14BF01230023DBB2A0
:1011000018460837BD4680BD80B582B000AF786014
:101110007B68002B03D07B681B68002B01D1012367
:101120000CE07B68186800230022002104F0ACF971
:101130000346012B14BF01230023DBB218460837F6
:10114000BD4680BD80B582B000AF78607B68002B63
:1011500006D07B681B68184604F01CFD002300E0E5
:10116000012318460837BD4680BD80B483B000AF68
:10117000786039603B681A047B689A6100BF0C375D
:10118000BD465DF8047B704780B485B000AF7860E1
:10119000084B1A6B07497B6813430B63054B1A6BAB
:1011A0007B681340FB60FB6800BF1437BD465DF8E9
:1011B000047B70470038024080B594B000AF07F15F
:1011C000200330220021184607F00EF907F10C0326
:1011D00000221A605A609A60DA601A610023BB60CC
:1011E000284B1B6C274A43F080531364254B1B6C20
:1011F00003F08053BB60BB6800237B60224B1B68FD
:10120000214A43F4804313601F4B1B6803F480435F
:101210007B607B6801233B624FF480337B62022357
:10122000BB634FF48003FB6319233B644FF4A87343
:101230007B640223BB640723FB6407F12003184689
:1012400000F09CFF0346002B01D000F07BF90F2338
:10125000FB6002233B6100237B614FF4A053BB6121
:101260004FF48053FB6107F10C030521184601F090
:10127000FDF90346002B01D000F064F900BF5037A0
:10128000BD4680BD003802400070004080B584B08B
:1012900000AF3B4600221A605A609A60DA60214B28
:1012A000214A1A601F4B4FF480325A601D4B0022B6
:1012B0009A601C4B00221A611A4B00221A76194BB5
:1012C000002283F82020174B0022DA62154B174AC0
:1012D0009A62144B0022DA60124B0122DA61114B40
:1012E000002283F830200F4B01225A610D4800F094
:1012F000E3FC0346002B01D000F024F900233B60FF
:1013000001237B600023BB603B461946054800F083
:1013100017FD0346002B01D000F014F900BF103771
:10132000BD4680BD9C010020002201400100000F4D
:1013300080B500AF174B184A1A60164B10225A603E
:10134000144B00229A60134B0022DA60114B4FF4C9
:1013500070221A610F4B00225A610E4B00221A763E
:101360000C4B00225A760B4B00229A76094B002236
:10137000DA76084B00221A77064B00225A77054886
:1013800001F032FE0346002B01D000F0DBF800BF75
:1013900080BD00BFE40100200064004080B500AFC4
:1013A000164B174A1A60154B10225A60134B002235
:1013B0009A60124B0022DA60104B00221A610F4B28
:1013C00000225A610D4B00221A760C4B00225A76ED
:1013D0000A4B00229A76094B0022DA76074B00224C
:1013E0001A77064B00225A77044801F0FDFD0346A8
:1013F000002B01D000F0A6F800BF80BD0C02002039
:101400000068004080B500AF144B4FF0A0421A6056
:10141000124B04225A60114B0222DA600F4B002259
:101420001A610E4B02229A610C4B0022DA610B4BBF
:1014300000221A62094B00225A62084B0022DA622B
:10144000064B00221A63054802F076F90346002B8A
:1014500001D000F077F800BF80BD00BF340200204B
:1014600080B586B000AF3B4600221A605A609A6091
:10147000DA601A615A611020FFF786FE0420FFF738
:1014800083FE8020FFF780FE0120FFF77DFE022013
:10149000FFF77AFE0820FFF777FE4FF4E0511D4872
:1014A000FFF763FE40233B6003237B6000233B6127
:1014B0003B461946184800F07EFB4FF400533B6052
:1014C00003237B6000233B613B461946114800F033
:1014D00072FB4FF4E0533B6001237B600023BB6051
:1014E0000023FB6000233B613B461946094800F09E
:1014F00062FB4FF480733B6003237B6000233B61FE
:101500003B461946054800F056FB00BF1837BD465C
:1015100080BD00BF000802400010024000040240ED
:1015200080B582B000AF78607B681B68044A934244
:1015300001D101F039FD00BF0837BD4680BD00BFB5
:101540000020004080B400AF72B600BFFEE780B458
:1015500000AFFEE780B400AFFEE780B400AFFEE767
:1015600080B400AFFEE780B400AFFEE780B400AF08
:1015700000BFBD465DF8047B7047000080B500AF3A
:10158000024801F0F5FE00BF80BD00BF400600200C
:1015900080B500AF024802F0ECF900BF80BD00BF8B
:1015A0003402002080B582B000AF00237B60124B74
:1015B0005B6C114A43F4804353640F4B5B6C03F440
:1015C00080437B607B6800233B600B4B1B6C0A4AAB
:1015D00043F080531364084B1B6C03F080533B6053
:1015E0003B6800220F216FF0010001F091FC00BF69
:1015F0000837BD4680BD00BF0038024080B58AB0C4
:1016000000AF786007F1140300221A605A609A60F4
:10161000DA601A617B681B68174A934227D100235E
:101620003B61164B5B6C154A43F480635364134B68
:101630005B6C03F480633B613B690023FB600F4BF1
:101640001B6B0E4A43F0010313630C4B1B6B03F03F
:101650000103FB60FB6801237B610323BB61002363
:10166000FB6107F114031946054801F0FDF900BFBD
:101670002837BD4680BD00BF00220140003802402F
:101680000000024080B58CB000AF786007F11C0309
:1016900000221A605A609A60DA601A617B681B68DF
:1016A000424A934235D1424B1B680133404A136092
:1016B0003F4B1B68012B0DD10023BB613D4B1B6CC5
:1016C0003C4A43F0007313643A4B1B6C03F0007305
:1016D000BB61BB6900237B61364B1B6B354A43F012
:1016E00008031363334B1B6B03F008037B617B69B7
:1016F0000323FB6102233B6200237B620323BB6263
:101700000923FB6207F11C0319462B4801F0ACF9D1
:1017100048E07B681B68294A934243D100233B6120
:10172000244B1B6C234A43F080631364214B1B6CD6
:1017300003F080633B613B691D4B1B6801331C4A0E
:1017400013601B4B1B68012B0DD10023FB60194B51
:101750001B6C184A43F000731364164B1B6C03F0A8
:101760000073FB60FB680023BB60124B1B6B114ACC
:1017700043F0020313630F4B1B6B03F00203BB60C8
:10178000BB684FF44053FB6102233B6200237B6242
:101790000323BB620923FB6207F11C0319460848B7
:1017A00001F062F900BF3037BD4680BD00640040E3
:1017B0003C06002000380240000C02400068004057
:1017C0000004024080B58AB000AF786007F11403CE
:1017D00000221A605A609A60DA601A617B681B689E
:1017E000B3F1A04F3AD100233B611E4B1B6B1D4A46
:1017F00043F0010313631B4B1B6B03F001033B61BD
:101800003B694FF4C0537B610223BB610023FB6142
:1018100003233B620A237B6207F114031946124833
:1018200001F022F90F4B5B6B0E4A43F080035363C8
:101830000023FB600B4B5B6C0A4A43F48043536408
:10184000084B5B6C03F48043FB60FB6800220521BE
:10185000432001F05DFB432001F076FB00BF2837F9
:10186000BD4680BD003802400000024080B58CB00B
:1018700000AF78600023FB620023BB62002279681E
:101880002D2001F045FB2D2001F05EFB0023FB60C5
:101890001F4B1B6C1E4A43F4807313641C4B1B6C60
:1018A00003F48073FB60FB6807F1100207F1140377
:1018B0001146184601F0A6F801F090F803465B00C7
:1018C000FB62FB6A134AA2FB03239B0C013BBB6236
:1018D000114B124A1A60104B40F2E732DA600E4A9E
:1018E000BB6A53600C4B00221A610B4B00229A60BA
:1018F000094801F074FC0346002B04D1064801F0AE
:10190000C7FC034600E0012318463037BD4680BDC2
:101910000038024083DE1B434006002000200040C8
:1019200080B48BB000AFF860B9607A60FB681A6869
:10193000BB687B617B6993FAA3F33B613B69BB6145
:10194000BB69002B01D1202303E0BB69B3FA83F309
:10195000DBB25B00032101FA03F3DB431A40BB68EF
:101960003B623B6A93FAA3F3FB61FB697B627B6A90
:10197000002B01D1202303E07B6AB3FA83F3DBB2AF
:101980005B00796801FA03F31A43FB681A6000BF31
:101990002C37BD465DF8047B704780B485B000AF3E
:1019A000F860B9607A60FB685A68BB68DB431A402C
:1019B000BB68796801FB03F31A43FB685A6000BFF8
:1019C0001437BD465DF8047B704780B48BB000AF20
:1019D000F860B9607A60FB689A68BB687B617B6974
:1019E00093FAA3F33B613B69BB61BB69002B01D157
:1019F000202303E0BB69B3FA83F3DBB25B0003216E
:101A000001FA03F3DB431A40BB683B623B6A93FA7B
:101A1000A3F3FB61FB697B627B6A002B01D120236E
:101A200003E07B6AB3FA83F3DBB25B00796801FA07
:101A300003F31A43FB689A6000BF2C37BD465DF87C
:101A4000047B704780B48BB000AFF860B9607A60F7
:101A5000FB68DA68BB687B617B6993FAA3F33B613F
:101A60003B69BB61BB69002B01D1202303E0BB694B
:101A7000B3FA83F3DBB25B00032101FA03F3DB4328
:101A80001A40BB683B623B6A93FAA3F3FB61FB69B4
:101A90007B627B6A002B01D1202303E07B6AB3FACF
:101AA00083F3DBB25B00796801FA03F31A43FB6846
:101AB000DA6000BF2C37BD465DF8047B704780B408
:101AC0008BB000AFF860B9607A60FB681A6ABB68D7
:101AD0007B617B6993FAA3F33B613B69BB61BB69A3
:101AE000002B01D1202303E0BB69B3FA83F3DBB2FF
:101AF0009B000F2101FA03F3DB431A40BB683B62F2
:101B00003B6A93FAA3F3FB61FB697B627B6A002B60
:101B100001D1202303E07B6AB3FA83F3DBB29B009D
:101B2000796801FA03F31A43FB681A6200BF2C3785
:101B3000BD465DF8047B704780B48BB000AFF860A1
:101B4000B9607A60FB685A6ABB681B0A7B617B6973
:101B500093FAA3F33B613B69BB61BB69002B01D1E5
:101B6000202303E0BB69B3FA83F3DBB29B000F21B0
:101B700001FA03F3DB431A40BB681B0A3B623B6A72
:101B800093FAA3F3FB61FB697B627B6A002B01D1B3
:101B9000202303E07B6AB3FA83F3DBB29B0079680E
:101BA00001FA03F31A43FB685A6200BF2C37BD46A3
:101BB0005DF8047B704780B58AB000AF786039600B
:101BC00000237B6200233B623B681B68BB61BB69EF
:101BD00093FAA3F37B617B69FB61FB69002B01D165
:101BE000202303E0FB69B3FA83F3DBB27B6257E0A7
:101BF0003B681A6801217B6A01FA03F313403B62D8
:101C00003B6A002B49D03B685B68012B03D03B68E3
:101C10005B68022B0DD13B689B681A46396A78686D
:101C2000FFF7D3FE3B68DB681A46396A7868FFF72E
:101C3000B4FE3B681B691A46396A7868FFF702FFF1
:101C40003B685B68022B21D13B6AFB60FB6893FA1F
:101C5000A3F3BB60BB683B613B69002B01D1202330
:101C600003E03B69B3FA83F3DBB2072B07D83B6889
:101C70005B691A46396A7868FFF721FF06E03B681E
:101C80005B691A46396A7868FFF756FF3B685B68FC
:101C90001A46396A7868FFF743FE7B6A01337B6234
:101CA0003B681A687B6A22FA03F3002BA0D1002359
:101CB00018462837BD4680BD80B584B000AF786037
:101CC0000023FB737B68002B01D1012333E07B6889
:101CD0001B6C002B09D17868FFF790FC7B68002211
:101CE0005A647B68002283F83C207B681B6C03F0FD
:101CF0001003002B18D17B681B6C23F4885323F04E
:101D0000020343F002027B681A64786800F03AF933
:101D10007B6800225A647B681B6C23F0030343F04A
:101D200001027B681A6401E00123FB737B680022D7
:101D300083F83C20FB7B18461037BD4680BD000071
:101D400080B485B000AF786039600023BB607B68E9
:101D500093F83C30012B01D1022305E17B6801227D
:101D600083F83C203B681B68092B25D97B681B68DE
:101D7000D9683B681B689BB21A4613465B00134444
:101D80001E3B072202FA03F3DA437B681B680A4012
:101D9000DA607B681B68D9683B689A683B681B6897
:101DA0009BB2184603465B0003441E3B9A407B6887
:101DB0001B680A43DA6022E07B681B6819693B688C
:101DC0001B689BB21A4613465B001344072202FAB3
:101DD00003F3DA437B681B680A401A617B681B685F
:101DE00019693B689A683B681B689BB218460346B2
:101DF0005B0003449A407B681B680A431A613B6896
:101E00005B68062B24D87B681B68596B3B685A6853
:101E100013469B001344053B1F2202FA03F3DA43E7
:101E20007B681B680A405A637B681B68596B3B6878
:101E30001B689BB218463B685A6813469B001344C4
:101E4000053B00FA03F27B681B680A435A634CE0C7
:101E50003B685B680C2B24D87B681B68196B3B685C
:101E60005A6813469B001344233B1F2202FA03F3D4
:101E7000DA437B681B680A401A637B681B68196B2E
:101E80003B681B689BB218463B685A6813469B0028
:101E90001344233B00FA03F27B681B680A431A636E
:101EA00023E07B681B68D96A3B685A6813469B002D
:101EB0001344413B1F2202FA03F3DA437B681B6899
:101EC0000A40DA627B681B68D96A3B681B689BB270
:101ED00018463B685A6813469B001344413B00FA7E
:101EE00003F27B681B680A43DA62224BFB607B6863
:101EF0001B68214A934209D13B681B68122B05D10C
:101F0000FB685B6843F48002FB685A607B681B686F
:101F1000194A934223D13B681B68102B03D03B68BE
:101F20001B68112B1BD1FB685B6843F40002FB6844
:101F30005A603B681B68102B11D1104B1B68104A6C
:101F4000A2FB03239A0C13469B0013445B00BB6067
:101F500002E0BB68013BBB60BB68002BF9D17B682A
:101F6000002283F83C20002318461437BD465DF854
:101F7000047B7047002301400020014074000020D2
:101F800083DE1B4380B485B000AF7860794BFB6083
:101F9000FB685B6823F44032FB685A60FB685A6850
:101FA0007B685B681A43FB685A607B681B685A68E9
:101FB0007B681B6822F480725A607B681B685968D2
:101FC0007B681B691A027B681B680A435A607B683E
:101FD0001B685A687B681B6822F040725A607B68F5
:101FE0001B6859687B689A687B681B680A435A605B
:101FF0007B681B689A687B681B6822F400629A60A1
:102000007B681B6899687B68DA687B681B680A4391
:102010009A607B689B6A584A934222D07B681B680F
:102020009A687B681B6822F070629A607B681B6804
:1020300099687B689A6A7B681B680A439A607B6828
:102040001B689A687B681B6822F040529A607B6824
:102050001B6899687B68DA6A7B681B680A439A6028
:102060000FE07B681B689A687B681B6822F07062CF
:102070009A607B681B689A687B681B6822F04052F4
:102080009A607B681B689A687B681B6822F0020272
:102090009A607B681B6899687B681B7E5A007B6826
:1020A0001B680A439A607B6893F82030002B1BD092
:1020B0007B681B685A687B681B6842F400625A6040
:1020C0007B681B685A687B681B6822F460425A6010
:1020D0007B681B6859687B685B6A013B5A037B68B5
:1020E0001B680A435A6007E07B681B685A687B6874
:1020F0001B6822F400625A607B681B68DA6A7B689E
:102100001B6822F47002DA627B681B68D96A7B68FC
:10211000DB69013B1A057B681B680A43DA627B684E
:102120001B689A687B681B6822F400729A607B685F
:102130001B6899687B6893F830305A027B681B688B
:102140000A439A607B681B689A687B681B6822F464
:1021500080629A607B681B6899687B685B699A02F9
:102160007B681B680A439A6000BF1437BD465DF860
:10217000047B7047002301400100000F80B586B04A
:1021800000AF78607B68002B01D1012367E27B6898
:102190001B6803F00103002B75D0884B9B6803F08C
:1021A0000C03042B0CD0854B9B6803F00C03082B0D
:1021B00012D1824B5B6803F48003B3F5800F0BD11F
:1021C0007E4B1B6803F40033002B5BD07B685B689D
:1021D000002B57D1012342E27B685B68B3F5803F57
:1021E00006D1764B1B68754A43F4803313601DE0BB
:1021F0007B685B68B3F5A02F0CD1704B1B686F4AEE
:1022000043F4802313606D4B1B686C4A43F48033A6
:1022100013600BE0694B1B68684A23F4803313603A
:10222000664B1B68654A23F4802313607B685B68F8
:10223000002B13D000F0CCFE386108E000F0C8FE9F
:1022400002463B69D31A642B01D9032307E25B4B97
:102250001B6803F40033002BF0D014E000F0B8FE4C
:10226000386108E000F0B4FE02463B69D31A642BE3
:1022700001D90323F3E1514B1B6803F40033002B16
:10228000F0D100E000BF7B681B6803F00203002B65
:1022900063D04A4B9B6803F00C03002B0BD0474BD9
:1022A0009B6803F00C03082B1CD1444B5B6803F4C0
:1022B0008003002B16D1414B1B6803F00203002B57
:1022C00005D07B68DB68012B01D00123C7E13B4BC4
:1022D0001B6823F0F8027B681B69DB003749134356
:1022E0000B603AE07B68DB68002B20D0344B012286
:1022F0001A6000F06DFE386108E000F069FE0246E9
:102300003B69D31A022B01D90323A8E12B4B1B688D
:1023100003F00203002BF0D0284B1B6823F0F802D7
:102320007B681B69DB00254913430B6015E0244BD8
:1023300000221A6000F04CFE386108E000F048FE10
:1023400002463B69D31A022B01D9032387E11B4BB9
:102350001B6803F00203002BF0D17B681B6803F0BD
:102360000803002B36D07B685B69002B16D0154B19
:1023700001221A6000F02CFE386108E000F028FE0F
:1023800002463B69D31A022B01D9032367E10B4BA9
:102390005B6F03F00203002BF0D01BE0094B00221F
:1023A0001A6000F015FE38610EE000F011FE0246E2
:1023B0003B69D31A022B07D9032350E100380240AE
:1023C00000004742800E4742884B5B6F03F00203D8
:1023D000002BEAD17B681B6803F00403002B00F09C
:1023E00097800023FB75814B1B6C03F08053002BFF
:1023F0000FD10023BB607D4B1B6C7C4A43F08053A4
:1024000013647A4B1B6C03F08053BB60BB680123E1
:10241000FB75774B1B6803F48073002B18D1744B4A
:102420001B68734A43F48073136000F0D1FD386178
:1024300008E000F0CDFD02463B69D31A022B01D91A
:1024400003230CE16A4B1B6803F48073002BF0D06C
:102450007B689B68012B06D1644B1B6F634A43F07A
:10246000010313671CE07B689B68052B0CD15F4B55
:102470001B6F5E4A43F0040313675C4B1B6F5B4AA0
:1024800043F0010313670BE0584B1B6F574A23F0CF
:1024900001031367554B1B6F544A23F00403136762
:1024A0007B689B68002B15D000F092FD38610AE034
:1024B00000F08EFD02463B69D31A41F28832934206
:1024C00001D90323CBE0494B1B6F03F00203002B20
:1024D000EED014E000F07CFD38610AE000F078FDF9
:1024E00002463B69D31A41F28832934201D9032351
:1024F000B5E03E4B1B6F03F00203002BEED1FB7DDA
:10250000012B05D1394B1B6C384A23F080531364DF
:102510007B689B69002B00F0A180344B9B6803F023
:102520000C03082B5CD07B689B69022B41D1314B9B
:1025300000221A6000F04CFD386108E000F048FD10
:1025400002463B69D31A022B01D9032387E0274BAC
:102550001B6803F00073002BF0D17B68DA697B689D
:102560001B6A1A437B685B6A9B011A437B689B6A00
:102570005B08013B1B041A437B68DB6A1B061B4993
:1025800013434B601B4B01221A6000F021FD3861A0
:1025900008E000F01DFD02463B69D31A022B01D969
:1025A00003235CE0114B1B6803F00073002BF0D099
:1025B00054E0104B00221A6000F00AFD386108E078
:1025C00000F006FD02463B69D31A022B01D9032312
:1025D00045E0064B1B6803F00073002BF0D13DE093
:1025E0007B689B69012B07D1012338E0003802404A
:1025F00000700040600047421B4B5B68FB607B68DB
:102600009B69012B28D0FB6803F480027B68DB699F
:102610009A4221D1FB6803F03F027B681B6A9A4211
:102620001AD1FA6847F6C07313407A68526A920169
:10263000934211D1FB6803F440327B689B6A5B08CC
:10264000013B1B049A4207D1FB6803F070627B6870
:10265000DB6A1B069A4201D0012300E000231846E2
:102660001837BD4680BD00BF0038024080B584B039
:1026700000AF786039607B68002B01D10123CCE08A
:10268000684B1B6803F007033A689A420CD9654B04
:102690003A68D2B21A70634B1B6803F007033A68BA
:1026A0009A4201D00123B8E07B681B6803F0020363
:1026B000002B20D07B681B6803F00403002B05D09F
:1026C000594B9B68584A43F4E05393607B681B68FE
:1026D00003F00803002B05D0534B9B68524A43F488
:1026E00060439360504B9B6823F0F0027B689B68CB
:1026F0004D4913438B607B681B6803F00103002B7B
:1027000044D07B685B68012B07D1474B1B6803F4FF
:102710000033002B19D101237FE07B685B68022B1B
:1027200003D07B685B68032B07D13F4B1B6803F02A
:102730000073002B09D101236FE03B4B1B6803F0B2
:102740000203002B01D1012367E0374B9B6823F084
:1027500003027B685B68344913438B6000F038FCEC
:10276000F8600AE000F034FC0246FB68D31A41F23C
:102770008832934201D903234FE02B4B9B6803F02F
:102780000C027B685B689B009A42EBD1254B1B686F
:1027900003F007033A689A420CD2224B3A68D2B24D
:1027A0001A70204B1B6803F007033A689A4201D065
:1027B000012332E07B681B6803F00403002B08D080
:1027C000194B9B6823F4E0527B68DB68164913437E
:1027D0008B607B681B6803F00803002B09D0124B49
:1027E0009B6823F460427B681B69DB000E4913433E
:1027F0008B6000F021F802460B4B9B681B0903F02D
:102800000F030A49CB5C22FA03F3094A1360094B10
:102810001B681846FFF72AF8002318461037BD46F4
:1028200080BD00BF003C0240003802400486000822
:1028300074000020680000202DE9B04F90B000AF78
:1028400000237B630023FB6300233B630023BB6304
:10285000594B9B6803F00C03082B0DD0082B00F29A
:10286000A180002B02D0042B03D09BE0534BBB6311
:102870009BE0534BBB6398E04F4B5B6803F03F0317
:102880007B634D4B5B6803F48003002B28D04A4BDD
:102890005B689B0900223B627A623B6AC3F30800D3
:1028A0000021474B03FB01F2002300FB03F3134419
:1028B000434AA0FB0212FA620A46BA62FA6A134459
:1028C000FB627B6B0022BB61FA61D7E90623D7E983
:1028D0000A01FDF7A1FE02460B461346FB6353E0D7
:1028E000354B5B689B0900223B617A613B69C3F30E
:1028F000080A4FF0000B52465B464FF000004FF0C5
:102900000001590141EAD261500102460B46B2EB87
:102910000A0863EB0B094FF000024FF000034FEA87
:10292000891343EA98634FEA8812B2EB080463EB19
:1029300009054FF000024FF00003EB0043EA547327
:10294000E20014461D4614EB0A033B6045EB0B0303
:102950007B604FF000024FF00003D7E900452946A5
:102960008B02214643EA915321468A0210461946BA
:102970007B6B0022BB60FA60D7E90223FDF74CFEB7
:1029800002460B461346FB630B4B5B681B0C03F0C4
:10299000030301335B003B63FA6B3B6BB2FBF3F366
:1029A000BB6302E0054BBB6300BFBB6B18464037FF
:1029B000BD46BDE8B08F00BF003802400024F400DF
:1029C00040787D0180B400AF034B1B681846BD46BC
:1029D0005DF8047B704700BF7400002080B500AF35
:1029E000FFF7F0FF0246054B9B689B0A03F00703C5
:1029F0000349CB5C22FA03F3184680BD003802403D
:102A00001486000880B483B000AF786039607B68BA
:102A10000F221A60124B9B6803F003027B685A6016
:102A20000F4B9B6803F0F0027B689A600C4B9B682D
:102A300003F4E0527B68DA60094B9B68DB0803F41F
:102A4000E0527B681A61074B1B6803F007023B6882
:102A50001A6000BF0C37BD465DF8047B704700BFAD
:102A600000380240003C024080B489B000AF78607A
:102A7000396000237B6100233B610023BB6100239D
:102A8000FB616BE10122FB6902FA03F37B613B68A6
:102A90001B687A6913403B613A697B699A4240F04E
:102AA0005A813B685B6803F00303012B05D03B6848
:102AB0005B6803F00303022B30D17B689B68BB612A
:102AC000FB695B00032202FA03F3DB43BA6913409C
:102AD000BB613B68DA68FB695B0002FA03F3BA6921
:102AE0001343BB617B68BA699A607B685B68BB61B2
:102AF0000122FB6902FA03F3DB43BA691340BB61AD
:102B00003B685B681B0903F00102FB6902FA03F3EF
:102B1000BA691343BB617B68BA695A603B685B68FA
:102B200003F00303032B17D07B68DB68BB61FB69F1
:102B30005B00032202FA03F3DB43BA691340BB6173
:102B40003B689A68FB695B0002FA03F3BA691343B6
:102B5000BB617B68BA69DA603B685B6803F00303BA
:102B6000022B23D1FB69DA087B68083253F8223044
:102B7000BB61FB6903F007039B000F2202FA03F31A
:102B8000DB43BA691340BB613B681A69FB6903F018
:102B900007039B0002FA03F3BA691343BB61FB69A5
:102BA000DA087B680832B96943F822107B681B6831
:102BB000BB61FB695B00032202FA03F3DB43BA69E2
:102BC0001340BB613B685B6803F00302FB695B0079
:102BD00002FA03F3BA691343BB617B68BA691A60EE
:102BE0003B685B6803F44033002B00F0B4800023A3
:102BF000FB60604B5B6C5F4A43F4804353645D4B06
:102C00005B6C03F48043FB60FB685B4AFB699B08D9
:102C1000023352F82330BB61FB6903F003039B00CE
:102C20000F2202FA03F3DB43BA691340BB617B68EE
:102C3000524A93422BD07B68514A934225D07B68FD
:102C4000504A93421FD07B684F4A934219D07B6809
:102C50004E4A934213D07B684D4A93420DD07B6815
:102C60004C4A934207D07B684B4A934201D10723D9
:102C70000EE008230CE006230AE0052308E0042305
:102C800006E0032304E0022302E0012300E0002326
:102C9000FA6902F0030292009340BA691343BB61E0
:102CA0003549FB699B080233BA6941F823203B4B45
:102CB0001B68BB613B69DB43BA691340BB613B687E
:102CC0005B6803F48033002B03D0BA693B6913437C
:102CD000BB61324ABB691360304B5B68BB613B69C7
:102CE000DB43BA691340BB613B685B6803F40033A4
:102CF000002B03D0BA693B691343BB61274ABB6908
:102D00005360264B9B68BB613B69DB43BA69134048
:102D1000BB613B685B6803F48013002B03D0BA6986
:102D20003B691343BB611D4ABB6993601B4BDB6866
:102D3000BB613B69DB43BA691340BB613B685B68BD
:102D400003F40013002B03D0BA693B691343BB6142
:102D5000124ABB69D360FB690133FB61FB690F2B2E
:102D60007FF690AE00BF00BF2437BD465DF8047B00
:102D7000704700BF003802400038014000000240A8
:102D80000004024000080240000C02400010024013
:102D90000014024000180240001C0240003C0140A8
:102DA00080B485B000AF78607B6803F00703FB60F8
:102DB0000C4BDB68BB60BA684FF6FF031340BB6087
:102DC000FB681A02BB68134343F0BF6343F400334C
:102DD000BB60044ABB68D36000BF1437BD465DF8D2
:102DE000047B704700ED00E080B400AF044BDB686B
:102DF0001B0A03F007031846BD465DF8047B7047C5
:102E000000ED00E080B483B000AF0346FB7197F99A
:102E10000730002B0BDBFB7903F01F02074997F902
:102E200007305B09012000FA02F241F8232000BFBD
:102E30000C37BD465DF8047B704700BF00E100E041
:102E400080B483B000AF03463960FB7197F9073057
:102E5000002B0ADB3B68DAB20C4997F90730120104
:102E6000D2B20B4483F800230AE03B68DAB2084987
:102E7000FB7903F00F03043B1201D2B20B441A7624
:102E800000BF0C37BD465DF8047B704700E100E0F1
:102E900000ED00E080B489B000AFF860B9607A60FE
:102EA000FB6803F00703FB61FB69C3F10703042B15
:102EB00028BF0423BB61FB690433062B02D9FB69DD
:102EC000033B00E000237B614FF0FF32BB6902FA55
:102ED00003F3DA43BB681A407B699A404FF0FF3135
:102EE0007B6901FA03F3D9437B680B40134318460F
:102EF0002437BD465DF8047B704780B582B000AFD3
:102F000078607868FFF74CFF00BF0837BD4680BD8A
:102F100080B586B000AF0346B9607A60FB730023CA
:102F20007B61FFF761FF78617A68B9687869FFF7BC
:102F3000B1FF024697F90F3011461846FFF780FFA0
:102F400000BF1837BD4680BD80B582B000AF0346D4
:102F5000FB7197F907301846FFF754FF00BF083799
:102F6000BD4680BD80B500AF0E4B1B680D4A43F4D3
:102F7000007313600B4B1B680A4A43F480631360B1
:102F8000084B1B68074A43F4807313600320FFF764
:102F9000B4FF0F20FEF76AFCFEF704FB002318467F
:102FA00080BD00BF003C024080B400AF064B1B78E0
:102FB0001A46064B1B681344044A136000BFBD4603
:102FC0005DF8047B704700BF6C000020880600207D
:102FD00080B400AF034B1B681846BD465DF8047B08
:102FE000704700BF8806002080B584B000AF7860CD
:102FF0007B68002B01D10123EDE07B6893F8203042
:10300000DBB2002B02D17868FEF73CFB7B681B68C3
:103010001A687B681B6842F001021A60FFF7D8FF4C
:10302000F86012E0FFF7D4FF0246FB68D31A0A2BC0
:103030000BD97B685B6A43F400327B685A627B6819
:10304000052283F820200123C5E07B681B685B68AC
:1030500003F00103002BE5D07B681B681A687B68CE
:103060001B6822F002021A60FFF7B2FFF86012E05C
:10307000FFF7AEFF0246FB68D31A0A2B0BD97B6819
:103080005B6A43F400327B685A627B68052283F8EE
:10309000202001239FE07B681B685B6803F002032C
:1030A000002BE5D17B681B7E012B08D17B681B6858
:1030B0001A687B681B6842F080021A6007E07B6830
:1030C0001B681A687B681B6822F080021A607B68A4
:1030D0005B7E012B08D17B681B681A687B681B68C4
:1030E00042F040021A6007E07B681B681A687B6840
:1030F0001B6822F040021A607B689B7E012B08D17E
:103100007B681B681A687B681B6842F020021A60A3
:1031100007E07B681B681A687B681B6822F0200246
:103120001A607B68DB7E012B08D17B681B681A68FC
:103130007B681B6822F010021A6007E07B681B683E
:103140001A687B681B6842F010021A607B681B7F5C
:10315000012B08D17B681B681A687B681B6842F0EA
:1031600008021A6007E07B681B681A687B681B68A6
:1031700022F008021A607B685B7F012B08D17B6814
:103180001B681A687B681B6842F004021A6007E03B
:103190007B681B681A687B681B6822F004021A604F
:1031A0007B689A687B68DB681A437B681B691A43F3
:1031B0007B685B6942EA03017B685B685A1E7B6837
:1031C0001B680A43DA617B6800225A627B6801222D
:1031D00083F82020002318461037BD4680BD80B5F7
:1031E00082B000AF78607B68002B01D1012341E001
:1031F0007B6893F83D30DBB2002B06D17B68002260
:1032000083F83C20786800F039F87B68022283F864
:103210003D207B681A687B6804331946104600F02D
:10322000D7F97B68012283F846207B68012283F866
:103230003E207B68012283F83F207B68012283F8CF
:1032400040207B68012283F841207B68012283F8BB
:1032500042207B68012283F843207B68012283F8A7
:1032600044207B68012283F845207B68012283F893
:103270003D20002318460837BD4680BD80B483B08A
:1032800000AF786000BF0C37BD465DF8047B704727
:1032900080B485B000AF78607B6893F83D30DBB2D6
:1032A000012B01D001234EE07B68022283F83D20F0
:1032B0007B681B68DA687B681B6842F00102DA6091
:1032C0007B681B68234A934222D07B681B68B3F15A
:1032D000804F1DD07B681B681F4A934218D07B68C3
:1032E0001B681E4A934213D07B681B681C4A93429A
:1032F0000ED07B681B681B4A934209D07B681B6811
:10330000194A934204D07B681B68184A934211D132
:103310007B681B689B6803F00703FB60FB68062B58
:1033200010D07B681B681A687B681B6842F001023A
:103330001A6007E07B681B681A687B681B6842F0AC
:1033400001021A60002318461437BD465DF8047B5D
:10335000704700BF0000014000040040000800402A
:10336000000C0040000401400040014000180040F3
:1033700080B582B000AF78607B681B681B6903F082
:103380000203022B22D17B681B68DB6803F0020377
:10339000022B1BD17B681B686FF002021A617B68ED
:1033A00001221A777B681B689B6903F00303002BDB
:1033B00003D0786800F0EEF805E0786800F0E0F8F7
:1033C000786800F0F1F87B6800221A777B681B6848
:1033D0001B6903F00403042B22D17B681B68DB68A4
:1033E00003F00403042B1BD17B681B686FF00402FD
:1033F0001A617B6802221A777B681B689B6903F459
:103400004073002B03D0786800F0C4F805E07868BA
:1034100000F0B6F8786800F0C7F87B6800221A77E9
:103420007B681B681B6903F00803082B22D17B68AB
:103430001B68DB6803F00803082B1BD17B681B6843
:103440006FF008021A617B6804221A777B681B6898
:10345000DB6903F00303002B03D0786800F09AF8CF
:1034600005E0786800F08CF8786800F09DF87B68DB
:1034700000221A777B681B681B6903F01003102B6E
:1034800022D17B681B68DB6803F01003102B1BD173
:103490007B681B686FF010021A617B6808221A773C
:1034A0007B681B68DB6903F44073002B03D07868EA
:1034B00000F070F805E0786800F062F8786800F0D5
:1034C00073F87B6800221A777B681B681B6903F01E
:1034D0000103012B0ED17B681B68DB6803F001033D
:1034E000012B07D17B681B686FF001021A617868B5
:1034F000FEF716F87B681B681B6903F08003802BBE
:103500000ED17B681B68DB6803F08003802B07D13A
:103510007B681B686FF080021A61786800F002F91E
:103520007B681B681B6903F04003402B0ED17B684E
:103530001B68DB6803F04003402B07D17B681B68E6
:103540006FF040021A61786800F038F87B681B68F9
:103550001B6903F02003202B0ED17B681B68DB68FE
:1035600003F02003202B07D17B681B686FF020023B
:103570001A61786800F0CCF800BF0837BD4680BDFE
:1035800080B483B000AF786000BF0C37BD465DF8F3
:10359000047B704780B483B000AF786000BF0C3705
:1035A000BD465DF8047B704780B483B000AF78609F
:1035B00000BF0C37BD465DF8047B704780B483B014
:1035C00000AF786000BF0C37BD465DF8047B7047E4
:1035D00080B485B000AF786039607B681B68FB60A1
:1035E0007B68404A934213D07B68B3F1804F0FD081
:1035F0007B683D4A93420BD07B683C4A934207D09C
:103600007B683B4A934203D07B683A4A934208D195
:10361000FB6823F07003FB603B685B68FA68134348
:10362000FB607B682F4A93422BD07B68B3F1804FBD
:1036300027D07B682C4A934223D07B682B4A934245
:103640001FD07B682A4A93421BD07B68294A934249
:1036500017D07B68284A934213D07B68274A93424D
:103660000FD07B68264A93420BD07B68254A934251
:1036700007D07B68244A934203D07B68234A934255
:1036800008D1FB6823F44073FB603B68DB68FA6891
:103690001343FB60FB6823F080023B685B691343C4
:1036A000FB607B68FA681A603B689A687B68DA623C
:1036B0003B681A687B689A627B680A4A934203D027
:1036C0007B680C4A934203D13B681A697B681A6392
:1036D0007B6801225A6100BF1437BD465DF8047B48
:1036E000704700BF00000140000400400008004097
:1036F000000C004000040140004001400044014033
:103700000048014000180040001C0040002000401C
:1037100080B483B000AF786000BF0C37BD465DF861
:10372000047B704780B483B000AF786000BF0C3773
:10373000BD465DF8047B7047F0B58FB00AAF786086
:103740007B68002B01D101230FE17B681B68BB6004
:103750007B6893F8BD33DBB2002B06D17B68002277
:1037600083F8BC237868FEF72DF87B68032283F882
:10377000BD23BB68DB6B03F48073002B02D17B6835
:1037800000221A617B681B68184601F009F87B6803
:103790001B683B607E686D4606F110040FCC0FC5B8
:1037A0000FCC0FC594E8030085E80300331D0ECB52
:1037B000386800F0F1FE0346002B05D07B6802223A
:1037C00083F8BD230123D0E07B681B6800211846E5
:1037D00000F0F7FF0023FB734AE0FA7B7968134699
:1037E000DB009B1A9B000B443D3301221A70FA7BCD
:1037F00079681346DB009B1A9B000B443C33FA7B31
:103800001A70FA7BFB7B98B279681346DB009B1A2F
:103810009B000B44423302461A80FA7B79681346B8
:10382000DB009B1A9B000B443F3300221A70FA7B8B
:1038300079681346DB009B1A9B000B44443300223B
:103840001A60FA7B79681346DB009B1A9B000B44D5
:10385000483300221A60FA7B79681346DB009B1A12
:103860009B000B44503300221A60FB7B0133FB7337
:10387000FA7B7B685B689A42AFD30023FB7344E01A
:10388000FA7B79681346DB009B1A9B000B4403F21A
:10389000FD1300221A70FA7B79681346DB009B1A2D
:1038A0009B000B4403F5FE73FA7B1A70FA7B796870
:1038B0001346DB009B1A9B000B4403F2FF1300220C
:1038C0001A70FA7B79681346DB009B1A9B000B4445
:1038D00003F5017300221A60FA7B79681346DB0056
:1038E0009B1A9B000B4403F5027300221A60FA7BBB
:1038F00079681346DB009B1A9B000B4403F50473A5
:1039000000221A60FB7B0133FB73FA7B7B685B68E8
:103910009A42B5D37B681B683B607E686D4606F1B2
:1039200010040FCC0FC50FCC0FC594E8030085E839
:103930000300331D0ECB386800F090FF0346002BC8
:1039400005D07B68022283F8BD2301230DE07B684C
:10395000002283F838207B68012283F8BD237B682E
:103960001B68184601F0F6F9002318461437BD46C7
:10397000F0BD90B58DB000AF78607B681B683B628E
:103980003B6AFB617B681B68184601F097FA0346A7
:10399000002B40F09D837B681B68184601F0FBF903
:1039A0000346002B00F093837B681B68184601F0E8
:1039B000F2F9034603F00203022B07D17B681B6870
:1039C0005A697B681B6802F002025A617B681B68B7
:1039D000184601F0E0F9034603F01003102B61D103
:1039E0007B681B689A697B681B6822F010029A61E9
:1039F0003B6A1B6ABB61BB6903F00F021346DB0025
:103A00009B1A9B0003F5FC737A68134404337B61B3
:103A1000BB695B0C03F00F03022B24D1BA6947F694
:103A2000F0731340002B35D07B69D968BB691B0943
:103A30009BB2C3F30A039BB21A46386A01F032F90B
:103A40007B69DA68BB691B09C3F30A031A447B6903
:103A5000DA607B699A69BB691B09C3F30A031A44DC
:103A60007B699A6116E0BB695B0C03F00F03062BC0
:103A700010D17B6803F5717308221946386A01F08A
:103A800011F97B699A69BB691B09C3F30A031A44DC
:103A90007B699A617B681B689A697B681B6842F046
:103AA00010029A617B681B68184601F074F903469E
:103AB00003F40023B3F5002F6ED100237B627B68F3
:103AC0001B68184601F07AF9B86262E0BB6A03F03D
:103AD0000103002B57D07B681B687A6AD2B211466B
:103AE000184601F09FF938613B6903F00103002B90
:103AF0000CD07B6A5A01FB69134403F530631A4604
:103B000001239360796A786800F0E8FB3B6903F071
:103B10000803002B0CD07B6A5A01FB69134403F5A0
:103B200030631A4608239360796A786800F0E2FCF3
:103B30003B6903F01003002B08D07B6A5A01FB6934
:103B4000134403F530631A46102393603B6903F076
:103B50002003002B08D07B6A5A01FB69134403F54C
:103B600030631A46202393603B6903F40053002B13
:103B700009D07B6A5A01FB69134403F530631A4686
:103B80004FF4005393607B6A01337B62BB6A5B082E
:103B9000BB62BB6A002B99D17B681B68184601F099
:103BA000FAF8034603F48023B3F5802F40F0C08079
:103BB0007B681B68184601F01BF9B86200237B6222
:103BC000B2E0BB6A03F00103002B00F0A7807B6822
:103BD0001B687A6AD2B21146184601F041F9386181
:103BE0003B6903F00103002B57D07B6A03F00F03FE
:103BF000012202FA03F3FB60FB6903F500635A6BD1
:103C0000FB68DB43F96901F5006113404B637B6A94
:103C10005A01FB69134403F510631A4601239360AC
:103C20007B681B69012B32D179687A6A1346DB0005
:103C30009B1A9B000B444833196878687A6A1346CC
:103C4000DB009B1A9B00034444331B6819447868CB
:103C50007A6A1346DB009B1A9B00034448331960C1
:103C60007B6A002B13D179687A6A1346DB009B1AB2
:103C70009B000B4450331B68002B08D17B681868ED
:103C80007B6803F571731A46012101F049F97B6ADB
:103C9000DBB21946786800F02AFA3B6903F00803A2
:103CA000002B08D07B6A5A01FB69134403F51063AB
:103CB0001A46082393603B6903F01003002B08D0D9
:103CC0007B6A5A01FB69134403F510631A461023FB
:103CD00093603B6903F04003002B08D07B6A5A01D4
:103CE000FB69134403F510631A46402393603B6954
:103CF00003F00203002B08D07B6A5A01FB691344CE
:103D000003F510631A46022393603B6903F08003B6
:103D1000002B03D0796A786800F053FA7B6A01338C
:103D20007B62BB6A5B08BB62BB6A002B7FF449AF56
:103D30007B681B68184601F02EF8034603F0004329
:103D4000B3F1004F22D1FB6903F500635B68FA69A8
:103D500002F5006223F0010353607B6893F8F433AB
:103D6000012B08D17B68002283F8F42300217868B6
:103D700000F006FC02E0786800F0EDF97B681B6853
:103D80005A697B681B6802F000425A617B681B68B5
:103D9000184601F000F8034603F40063B3F5006F22
:103DA00012D1FB6903F500639B6803F00103012B4B
:103DB00002D1786800F0C5F97B681B685A697B6896
:103DC0001B6802F400625A617B681B68184600F0A9
:103DD000E2FF034603F48053B3F5805F40F0C780F1
:103DE000FB6903F500635B68FA6902F5006223F082
:103DF000010353607B681B681021184600F092FE97
:103E00000023FB6256E0FB6A5A01FB69134403F589
:103E100010631A464FF67F339360FB6A5A01FB69C1
:103E2000134403F510631B68FA6A5101FA690A44E6
:103E300002F5106223F400131360FB6A5A01FB6958
:103E4000134403F510631B68FA6A5101FA690A44C6
:103E500002F5106243F000631360FB6A5A01FB69CC
:103E6000134403F530631A464FF67F339360FB6AC1
:103E70005A01FB69134403F530631B68FA6A510168
:103E8000FA690A4402F5306223F400131360FB6AF6
:103E90005A01FB69134403F530631B68FA6A510148
:103EA000FA690A4402F5306243F000631360FB6A6A
:103EB0000133FB627B685B68FA6A9A42A3D3FB69B1
:103EC00003F50063DB69FA6902F5006243F0011350
:103ED000D3617B681B6B002B16D0FB6903F5006375
:103EE000D3F88430FA6902F5006243F00B03C2F89C
:103EF0008430FB6903F500635B6CFA6902F50062CC
:103F000043F00B03536415E0FB6903F500635B6941
:103F1000FA6902F5006243F4005343F02B03536146
:103F2000FB6903F500631B69FA6902F5006243F05F
:103F30000B031361FB6903F500631B68FA6902F563
:103F4000006223F4FE6313607B6818687B681B695A
:103F5000D9B27B6803F571731A4600F0E1FF7B6804
:103F60001B685A697B681B6802F480525A617B683F
:103F70001B68184600F00FFF034603F40053B3F527
:103F8000005F24D17B681B68184600F0A5FF7B68A2
:103F90001B68184600F023FE03461A467B68DA6069
:103FA0007B681C68FEF70EFD01467B68DB68DBB2B0
:103FB0001A46204600F052FB786800F0B8F87B689B
:103FC0001B685A697B681B6802F400525A617B685F
:103FD0001B68184600F0DFFE034603F00803082BB9
:103FE0000AD1786800F099F87B681B685A697B6889
:103FF0001B6802F008025A617B681B68184600F0D3
:10400000CAFE034603F48013B3F5801F0FD10023CB
:104010007B627B6ADBB21946786800F0B2F87B6895
:104020001B685A697B681B6802F480125A617B68BE
:104030001B68184600F0AFFE034603F40013B3F507
:10404000001F0FD100237B627B6ADBB219467868C0
:1040500000F08BF87B681B685A697B681B6802F468
:1040600000125A617B681B68184600F094FE0346F4
:1040700003F08043B3F1804F0AD1786800F08DF8E7
:104080007B681B685A697B681B6802F080425A6132
:104090007B681B68184600F07EFE034603F00403AD
:1040A000042B15D17B681B685B68BB61BB6903F09F
:1040B0000403002B02D0786800F079F87B681B6855
:1040C00059687B681B68BA690A435A6000E000BF00
:1040D0003437BD4690BD80B483B000AF78600B46E6
:1040E000FB7000BF0C37BD465DF8047B704780B4A1
:1040F00083B000AF78600B46FB7000BF0C37BD4645
:104100005DF8047B704780B483B000AF786000BF77
:104110000C37BD465DF8047B704780B483B000AFB8
:10412000786000BF0C37BD465DF8047B704780B4F3
:1041300083B000AF786000BF0C37BD465DF8047BEC
:10414000704780B483B000AF786000BF0C37BD46C5
:104150005DF8047B704780B483B000AF786000BF27
:104160000C37BD465DF8047B704780B483B000AF68
:1041700078600B46FB7000BF0C37BD465DF8047BD2
:10418000704780B483B000AF78600B46FB7000BF0F
:104190000C37BD465DF8047B704780B483B000AF38
:1041A000786000BF0C37BD465DF8047B704780B473
:1041B00083B000AF786000BF0C37BD465DF8047B6C
:1041C000704780B58AB002AF786039607B681B6841
:1041D0007B617B693B613A681346DB009B1A9B005D
:1041E00038337A6813440433FB60FB689A69FB68D0
:1041F0005B699A4201D901236CE0FB685A69FB684C
:104200009B69D31AFB61FB689B68FA699A4202D9E1
:10421000FB689B68FB61FB6903339B08BB612BE078
:10422000FB685A69FB689B69D31AFB61FB689B6852
:10423000FA699A4202D9FB689B68FB61FB69033308
:104240009B08BB61FB68D9683B68DAB2FB6998B22E
:104250007B681B69DBB200930346786900F0E4FCDD
:10426000FB68DA68FB691A44FB68DA60FB689A69E4
:10427000FB691A44FB689A613B685A013B69134425
:1042800003F510639B699BB2BA699A4209D8FB682F
:104290009A69FB685B699A4203D2FB685B69002BF1
:1042A000BED1FB685A69FB689B699A4211D83B688A
:1042B00003F00F03012202FA03F3BB603B6903F52D
:1042C00000635A6BBB68DB43396901F50061134039
:1042D0004B63002318462037BD4680BD80B586B0AD
:1042E00000AF786039607B681B687B617B693B61EC
:1042F0007B693C3304331B68FB603B685A013B69B4
:10430000134403F530639B68BB607B681B69012B1A
:1043100040F0A080BB6803F00803002B15D0FB68B9
:10432000724A934240F2DD80BB6803F40043002BE5
:1043300000F0D7803B685A013B69134403F53063B2
:104340001A464FF400439360CBE0BB6803F02003B0
:10435000002B09D03B685A013B69134403F53063D5
:104360001A4620239360BCE0BB6803F02803002BAF
:1043700040F0B780FB685D4A93420FD9BB6803F4F5
:104380000043002B0AD03B685A013B69134403F5F4
:1043900030631A464FF400439360A2E079683A68AC
:1043A0001346DB009B1A9B000B4403F501731A684C
:1043B0003B6859013B690B4403F530631B69C3F348
:1043C0001203D11A78683A681346DB009B1A9B00E7
:1043D000034403F50573196079683A681346DB00F6
:1043E0009B1A9B000B4403F50273196878683A68BE
:1043F0001346DB009B1A9B00034403F501731B6803
:10440000194478683A681346DB009B1A9B00034402
:1044100003F5027319603B68002B14D179683A6880
:104420001346DB009B1A9B000B4403F504731B68C7
:10443000002B08D17B6818687B6803F571731A46F6
:10444000012100F06DFD3B68DBB219467868FFF78B
:1044500042FE46E0FB68264A934224D1BB6803F43F
:104460000043002B0AD03B685A013B69134403F513
:1044700030631A464FF40043936032E0BB6803F0A8
:104480002003002B08D03B685A013B69134403F515
:1044900030631A46202393603B68DBB21946786884
:1044A000FFF719FE1DE03B68002B14D179683A68CC
:1044B0001346DB009B1A9B000B4403F504731B6837
:1044C000002B08D17B6818687B6803F571731A4666
:1044D000002100F025FD3B68DBB219467868FFF744
:1044E000FAFD002318461837BD4680BD0A30544FE8
:1044F0000A31544F80B586B000AF786039607B6870
:104500001B687B617B693B617B693C3304331B68BF
:10451000FB603B685A013B69134403F530639B68B9
:10452000BB60FB68154A93420ED9BB6803F4004395
:10453000002B09D03B685A013B69134403F53063F3
:104540001A464FF4004393607868FFF7DCFDFB6880
:104550000A4A93420CD97B681B69012B08D17B68FE
:1045600018687B6803F571731A46012100F0D8FCC6
:10457000002318461837BD4680BD00BF0A30544F8F
:1045800080B483B000AF78600B46FB7000BF0C377F
:10459000BD465DF8047B704784B080B584B000AF41
:1045A000786007F11C0080E80E003B6B012B22D1E4
:1045B0007B689B6B23F480327B689A637B68DB6843
:1045C00023F4840323F040037A68D3607B68DB68BC
:1045D00023F440127B68DA60FB6C012B05D17B6809
:1045E000DB6843F480127B68DA60786800F0F6FCE0
:1045F0000346FB731AE07B68DB6843F040027B688C
:10460000DA60786800F0EAFC0346FB733B6C002B31
:1046100006D17B689B6B43F480327B689A6305E02C
:104620007B689B6B23F480327B689A63BB6A012BA7
:104630000BD17B689B6843F006027B689A607B68BD
:104640009B6843F020027B689A60FB7B184610371A
:10465000BD46BDE8804004B07047000080B487B01C
:1046600000AFF860B9601346FB71FB79022B65D18E
:10467000BB68414A934206D9BB68404A934202D282
:104680000F237B6162E0BB683C4A934206D3BB6860
:104690003B4A934202D20E237B6157E0BB68384A03
:1046A000934206D3BB68374A934202D20D237B6103
:1046B0004CE0BB68334A934206D3BB68324A93420C
:1046C00002D80C237B6141E0BB682F4A934206D994
:1046D000BB682E4A934202D80B237B6136E0BB684D
:1046E0002A4A934206D9BB68294A934202D80A2330
:1046F0007B612BE0BB68264A934206D9BB68254AFA
:10470000934202D209237B6120E0BB68214A934295
:1047100006D3BB68204A934202D808237B6115E088
:10472000BB681D4A934206D9BB681C4A934202D219
:1047300007237B610AE006237B6107E0FB79002BFE
:1047400002D109237B6101E009237B61FB68DB68FF
:1047500023F47052FB68DA60FB68DA687B699B02BD
:1047600003F470531A43FB68DA60002318461C37C1
:10477000BD465DF8047B7047BFACD800C0E1E400E3
:104780000024F400807306019F491A01FF2C3101B7
:104790003FA44C0100366E011FABA6010048E801A2
:1047A00080B483B000AF78607B689B6823F001021F
:1047B0007B689A60002318460C37BD465DF8047B81
:1047C000704780B584B000AF78600B46FB70002363
:1047D000FB607B68DB6823F0C0427B68DA60FB78B3
:1047E000012B15D17B68DB6843F000527B68DA60EF
:1047F0000120FCF743FAFB680133FB60786800F0A6
:104800005DFB0346012B1ED0FB68312BF0D91AE06B
:10481000FB78002B15D17B68DB6843F080427B6816
:10482000DA600120FCF72AFAFB680133FB60786844
:1048300000F044FB0346002B05D0FB68312BF0D978
:1048400001E0012305E0FB68322B01D1012300E0E8
:10485000002318461037BD4680BD000084B080B5E7
:1048600086B000AF786007F1240080E80E000023D6
:10487000FB757B68FB6000233B6109E07A683B695C
:1048800040339B00134400225A603B6901333B6173
:104890003B690E2BF2D9FB6C002B1CD1FB6803F596
:1048A00000635B68FA6802F5006243F0020353603C
:1048B0007B689B6B43F400127B689A637B689B6BFD
:1048C00023F400227B689A637B689B6B23F480222D
:1048D0007B689A630BE07B689B6B23F400127B6818
:1048E0009A637B689B6B43F400227B689A63FB6846
:1048F00003F560631A4600231360FB6803F5006349
:104900001946FB6803F500631A460B681360BB6B1E
:10491000012B0CD1FB6A002B04D10021786800F038
:1049200045F908E00121786800F040F903E003212F
:10493000786800F03BF91021786800F0F3F803463E
:10494000002B01D00123FB75786800F00FF90346B6
:10495000002B01D00123FB75FB6803F500631A46A9
:1049600000231361FB6803F500631A4600235361BB
:10497000FB6803F500631A460023D36100233B6103
:1049800043E03B695A01FB68134403F510631B685D
:1049900003F00043B3F1004F18D13B69002B0AD15B
:1049A0003B695A01FB68134403F510631A464FF044
:1049B0000063136013E03B695A01FB68134403F57D
:1049C00010631A464FF09043136008E03B695A01A8
:1049D000FB68134403F510631A46002313603B6918
:1049E0005A01FB68134403F510631A460023136150
:1049F0003B695A01FB68134403F510631A464FF6EE
:104A00007F3393603B6901333B617B6A3A699A4229
:104A1000B7D300233B6143E03B695A01FB68134471
:104A200003F530631B6803F00043B3F1004F18D166
:104A30003B69002B0AD13B695A01FB68134403F51B
:104A400030631A464FF00063136013E03B695A016C
:104A5000FB68134403F530631A464FF0904313602C
:104A600008E03B695A01FB68134403F530631A46BA
:104A7000002313603B695A01FB68134403F530635C
:104A80001A46002313613B695A01FB68134403F57E
:104A900030631A464FF67F3393603B6901333B61C5
:104AA0007B6A3A699A42B7D3FB6803F500631B69D6
:104AB000FA6802F5006223F4807313617B680022B8
:104AC0009A617B686FF080425A613B6B002B05D185
:104AD0007B689B6943F010027B689A617B689A69E6
:104AE0000F4B13437A689361FB6B002B05D07B68F7
:104AF0009B6943F008027B689A61FB6C012B07D12C
:104B00007B689B6943F0804343F004037A689361B8
:104B1000FB7D18461837BD46BDE8804004B070479D
:104B200000383C8080B485B000AF786039600023E5
:104B3000FB603B689B0143F020027B681A61FB68C5
:104B40000133FB60084A934201D9032306E07B68E6
:104B50001B6903F02003202BF1D0002318461437E3
:104B6000BD465DF8047B7047400D030080B485B0FE
:104B700000AF78600023FB607B6810221A61FB683D
:104B80000133FB60084A934201D9032306E07B68A6
:104B90001B6903F01003102BF1D0002318461437C3
:104BA000BD465DF8047B7047400D030080B485B0BE
:104BB00000AF78600B46FB707B68FB60FB6803F519
:104BC00000631A68FB78F96801F5006113430B6014
:104BD000002318461437BD465DF8047B704780B447
:104BE00087B000AF78607B683B613B6903F5006389
:104BF0009B6803F00603FB60FB68002B02D10023D7
:104C0000FB750AE0FB68022B02D0FB68062B02D181
:104C10000223FB7501E00F23FB75FB7D18461C3753
:104C2000BD465DF8047B704780B489B000AFF86082
:104C3000B96011461A460B46FB711346BB80FB68F0
:104C40007B61BB68FB6197F82830002B23D1BB88C0
:104C500003339B083B610023BB6118E0FB791A0317
:104C60007B69134403F580531A46FB691B68136084
:104C7000FB690133FB61FB690133FB61FB690133B4
:104C8000FB61FB690133FB61BB690133BB61BA693D
:104C90003B699A42E2D3002318462437BD465DF8AB
:104CA000047B704780B48BB000AFF860B9601346E6
:104CB000FB80FB68BB61BB687B62FB889B089BB287
:104CC0007B61FB8803F00303FB8300233B6214E05A
:104CD000BB6903F580531A687B6A1A607B6A0133EB
:104CE0007B627B6A01337B627B6A01337B627B6A16
:104CF00001337B623B6A01333B623A6A7B699A42C9
:104D0000E6D3FB8B002B1ED000233B62BB6903F56F
:104D100080531A4607F1100312681A603A693B6A19
:104D2000DBB2DB0022FA03F3DAB27B6A1A703B6A69
:104D300001333B627B6A01337B62FB8B013BFB836C
:104D4000FB8B002BEAD17B6A18462C37BD465DF8F9
:104D5000047B704780B485B000AF78607B68FB60EF
:104D6000FB6803F560631B68FA6802F5606223F074
:104D700003031360FB6803F500635B68FA6802F5E0
:104D8000006243F002035360002318461437BD4607
:104D90005DF8047B704780B485B000AF78607B68B5
:104DA0005B69FB607B689B69FA681340FB60FB688A
:104DB00018461437BD465DF8047B704780B485B053
:104DC00000AF78607B68FB60FB6803F500639B695C
:104DD000BB60FB6803F50063DB69BA681340BB6026
:104DE000BB681B0C18461437BD465DF8047B704742
:104DF00080B485B000AF78607B68FB60FB6803F52A
:104E000000639B69BB60FB6803F50063DB69BA68FC
:104E10001340BB60BB689BB218461437BD465DF8B3
:104E2000047B704780B485B000AF78600B46FB70A0
:104E30007B68FB60FB785A01FB68134403F5306321
:104E40009B68BB60FB6803F500635B69BA6813404D
:104E5000BB60BB6818461437BD465DF8047B7047DD
:104E600080B487B000AF78600B46FB707B687B61D5
:104E70007B6903F500631B693B617B6903F5006394
:104E80005B6BFB60FB7803F00F03FA6822FA03F315
:104E9000DB01DBB23A6913433B61FB785A017B6962
:104EA000134403F510639B683A691340BB60BB6809
:104EB00018461C37BD465DF8047B704780B483B04C
:104EC00000AF78607B685B6903F0010318460C371C
:104ED000BD465DF8047B704780B485B000AF786054
:104EE0007B68FB60FB6803F510631B68FA6802F5DA
:104EF000106223F4FF6323F007031360FB6803F5DC
:104F000000635B68FA6802F5006243F480735360E3
:104F1000002318461437BD465DF8047B7047000037
:104F200080B487B000AFF8600B467A60FB72FB6814
:104F30007B61FB683C3304331B683B613B69264A59
:104F400093420AD97B6903F530631B6803F0004381
:104F5000B3F1004F01D1002337E07B6903F53063E3
:104F60001A46002313617B6903F530631B697A6974
:104F700002F5306243F4002313617B6903F530636B
:104F80001B697A6902F5306243F0180313617B698B
:104F900003F530631B697A6902F5306243F0C04360
:104FA0001361FB7A012B0FD17B6903F530631A463D
:104FB0007B6853617B6903F530631B687A6902F58E
:104FC000306243F080231360002318461C37BD462F
:104FD0005DF8047B704700BF0A30544F80B485B041
:104FE00000AF78600023FB60FB680133FB60134A6D
:104FF000934201D903231AE07B681B69002BF3DA83
:105000000023FB607B681B6943F001027B681A6127
:10501000FB680133FB60094A934201D9032306E090
:105020007B681B6903F00103012BF1D000231846B4
:105030001437BD465DF8047B704700BF400D030088
:1050400080B483B000AF78607B6803F108027B68AE
:105050005A607B684FF0FF329A607B6803F1080268
:105060007B68DA607B6803F108027B681A617B6801
:1050700000221A6000BF0C37BD465DF8047B704704
:1050800080B483B000AF78607B6800221A6100BFF3
:105090000C37BD465DF8047B704780B485B000AF27
:1050A000786039607B685B68FB603B68FA685A60CF
:1050B000FB689A683B689A60FB689B683A685A602C
:1050C000FB683A689A603B687A681A617B681B687B
:1050D0005A1C7B681A6000BF1437BD465DF8047B1C
:1050E000704780B485B000AF786039603B681B685A
:1050F000BB60BB68B3F1FF3F03D17B681B69FB60FA
:105100000CE07B680833FB6002E0FB685B68FB60D7
:10511000FB685B681B68BA689A42F6D2FB685A68FB
:105120003B685A603B685B683A689A603B68FA681B
:105130009A60FB683A685A603B687A681A617B68D3
:105140001B685A1C7B681A6000BF1437BD465DF8A7
:10515000047B704780B485B000AF78607B681B69C2
:10516000FB607B685B687A6892689A607B689B6882
:105170007A6852685A60FB685B687A689A4203D121
:105180007B689A68FB685A607B6800221A61FB683A
:105190001B685A1EFB681A60FB681B6818461437A8
:1051A000BD465DF8047B704780B584B000AF786081
:1051B00039607B68FB60FB68002B0AD14FF050031D
:1051C00083F31188BFF36F8FBFF34F8FBB6000BFB6
:1051D000FEE702F047FEFB681A68FB68DB6BF968C4
:1051E000096C01FB03F31A44FB689A60FB68002218
:1051F0009A63FB681A68FB685A60FB681A68FB6868
:10520000DB6B013BF968096C01FB03F31A44FB6893
:10521000DA60FB68FF2283F84420FB68FF2283F8F2
:1052200045203B68002B14D1FB681B69002B1AD06A
:10523000FB681033184601F073FB0346002B12D0B5
:105240000C4B4FF080521A60BFF34F8FBFF36F8F3C
:1052500009E0FB6810331846FFF7F2FEFB682433C1
:105260001846FFF7EDFE02F02DFE01231846103719
:10527000BD4680BD04ED00E080B58EB002AFF860A1
:10528000B9607A603B60FB68002B0AD14FF0500395
:1052900083F31188BFF36F8FBFF34F8FBB6200BFE3
:1052A000FEE73B68002B0AD14FF0500383F31188CF
:1052B000BFF36F8FBFF34F8F7B6200BFFEE77B684A
:1052C000002B02D0BB68002B01D0012300E000239B
:1052D000002B0AD14FF0500383F31188BFF36F8F77
:1052E000BFF34F8F3B6200BFFEE77B68002B02D10C
:1052F000BB68002B01D1012300E00023002B0AD161
:105300004FF0500383F31188BFF36F8FBFF34F8FBC
:10531000FB6100BFFEE750237B617B69502B0AD005
:105320004FF0500383F31188BFF36F8FBFF34F8F9C
:10533000BB6100BFFEE77B693B68FB62FB6A002B39
:105340000DD0FB6A012283F8462097F83820FB6ACB
:10535000009313467A68B968F86800F03FF8FB6A72
:1053600018463037BD4680BD80B58AB002AFF860C0
:10537000B9601346FB71FB68002B0AD14FF0500354
:1053800083F31188BFF36F8FBFF34F8F3B6100BF73
:10539000FEE7FB68BA6802FB03F3FB61FB6950336D
:1053A000184602F04BFAB861BB69002B11D0BB69FB
:1053B0007B617B6950337B61BB69002283F84620A7
:1053C000FA79BB69009313467A69B968F86800F006
:1053D00005F8BB6918462037BD4680BD80B584B04E
:1053E00000AFF860B9607A60FB70BB68002B03D136
:1053F000BB69BA691A6002E0BB697A681A60BB6966
:10540000FA68DA63BB69BA681A640121B869FFF700
:10541000CBFEBB69FA7883F84C2000BF1037BD463D
:1054200080BD80B586B000AF786039607B68002BA6
:105430000AD14FF0500383F31188BFF36F8FBFF38E
:105440004F8F3B6100BFFEE73A687B689A420AD9FA
:105450004FF0500383F31188BFF36F8FBFF34F8F6B
:10546000FB6000BFFEE7022200217868FFF77CFFA7
:1054700078617B69002B02D07B693A689A637B690B
:1054800018461837BD4680BD80B58EB000AFF860B5
:10549000B9607A603B6000237B63FB683B633B6BD6
:1054A000002B0AD14FF0500383F31188BFF36F8FA5
:1054B000BFF34F8FBB6200BFFEE7BB68002B03D179
:1054C0003B6B1B6C002B01D1012300E00023002B60
:1054D0000AD14FF0500383F31188BFF36F8FBFF3EE
:1054E0004F8F7B6200BFFEE73B68022B03D13B6B13
:1054F000DB6B012B01D1012300E00023002B0AD13B
:105500004FF0500383F31188BFF36F8FBFF34F8FBA
:105510003B6200BFFEE701F0C5FB0346002B02D152
:105520007B68002B01D1012300E00023002B0AD16E
:105530004FF0500383F31188BFF36F8FBFF34F8F8A
:10554000FB6100BFFEE702F08DFC3B6B9A6B3B6B8F
:10555000DB6B9A4202D33B68022B29D13A68B968C7
:10556000386B00F052FBF8623B6B5B6A002B10D08B
:105570003B6B2433184601F0D3F90346002B13D0BC
:105580003F4B4FF080521A60BFF34F8FBFF36F8FC6
:105590000AE0FB6A002B07D0394B4FF080521A60AB
:1055A000BFF34F8FBFF36F8F02F08CFC012363E0DA
:1055B0007B68002B03D102F085FC00235CE07B6B51
:1055C000002B06D107F11403184601F00DFA012350
:1055D0007B6302F077FC00F079FF02F043FC3B6B49
:1055E00093F844305BB2B3F1FF3F03D13B6B002231
:1055F00083F844203B6B93F845305BB2B3F1FF3F37
:1056000003D13B6B002283F8452002F05BFC3A1D7E
:1056100007F114031146184601F0FCF90346002B6C
:1056200024D1386B00F0E9FB0346002B18D03B6B0C
:1056300010337A681146184601F022F9386B00F0F1
:1056400074FB00F051FF0346002B7FF47CAF0C4B42
:105650004FF080521A60BFF34F8FBFF36F8F72E726
:10566000386B00F062FB00F03FFF6CE7386B00F036
:105670005CFB00F039FF002318463837BD4680BD7B
:1056800004ED00E080B590B000AFF860B9607A60DA
:105690003B60FB68BB63BB6B002B0AD14FF0500330
:1056A00083F31188BFF36F8FBFF34F8FBB6200BFCF
:1056B000FEE7BB68002B03D1BB6B1B6C002B01D139
:1056C000012300E00023002B0AD14FF0500383F3A5
:1056D0001188BFF36F8FBFF34F8F7B6200BFFEE770
:1056E0003B68022B03D1BB6BDB6B012B01D1012388
:1056F00000E00023002B0AD14FF0500383F3118800
:10570000BFF36F8FBFF34F8F3B6200BFFEE702F026
:105710008BFCEFF311824FF0500383F31188BFF33A
:105720006F8FBFF34F8FFA61BB61FB697B63BB6B0C
:105730009A6BBB6BDB6B9A4202D33B68022B2FD177
:10574000BB6B93F8453087F83330BB6B9B6BFB62C8
:105750003A68B968B86B00F058FA97F93330B3F18A
:10576000FF3F12D1BB6B5B6A002B16D0BB6B24339F
:10577000184601F0D5F80346002B0ED07B68002BAD
:105780000BD07B6801221A6007E097F833300133B1
:10579000DBB25AB2BB6B83F845200123FB6301E007
:1057A0000023FB637B6B7B617B6983F3118800BF04
:1057B000FB6B18464037BD4680BD000080B58CB0FD
:1057C00000AFF860B9607A600023FB62FB68BB62DF
:1057D000BB6A002B0AD14FF0500383F31188BFF34B
:1057E0006F8FBFF34F8F3B6200BFFEE7BB68002B9C
:1057F00003D1BB6A1B6C002B01D1012300E0002305
:10580000002B0AD14FF0500383F31188BFF36F8F41
:10581000BFF34F8FFB6100BFFEE701F043FA034681
:10582000002B02D17B68002B01D1012300E0002373
:10583000002B0AD14FF0500383F31188BFF36F8F11
:10584000BFF34F8FBB6100BFFEE702F00BFBBB6AEB
:105850009B6B7B627B6A002B1FD0B968B86A00F033
:105860003EFA7B6A5A1EBB6A9A63BB6A1B69002BAD
:105870000FD0BB6A1033184601F052F80346002BD4
:1058800007D03D4B4FF080521A60BFF34F8FBFF3EC
:105890006F8F02F017FB012369E07B68002B03D1B7
:1058A00002F010FB002362E0FB6A002B06D107F137
:1058B0001003184601F098F80123FB6202F002FB86
:1058C00000F004FE02F0CEFABB6A93F844305BB2FB
:1058D000B3F1FF3F03D1BB6A002283F84420BB6AC7
:1058E00093F845305BB2B3F1FF3F03D1BB6A0022AE
:1058F00083F8452002F0E6FA3A1D07F1100311463D
:10590000184601F087F80346002B23D1B86A00F04F
:105910005EFA0346002B17D0BB6A24337A6811461F
:10592000184600F0ADFFB86A00F0FFF900F0DCFDAA
:105930000346002B89D1104B4FF080521A60BFF301
:105940004F8FBFF36F8F80E7B86A00F0EEF900F079
:10595000CBFD7AE7B86A00F0E8F900F0C5FDB86A57
:1059600000F035FA0346002B3FF46FAF00231846D2
:105970003037BD4680BD00BF04ED00E080B58EB07D
:1059800000AF7860396000237B637B68FB62002393
:105990003B63FB6A002B0AD14FF0500383F311885D
:1059A000BFF36F8FBFF34F8F3B6200BFFEE7FB6A11
:1059B0001B6C002B0AD04FF0500383F31188BFF308
:1059C0006F8FBFF34F8FFB6100BFFEE701F06AF9F5
:1059D0000346002B02D13B68002B01D1012300E0DC
:1059E0000023002B0AD14FF0500383F31188BFF33B
:1059F0006F8FBFF34F8FBB6100BFFEE702F032FA3B
:105A0000FB6A9B6BBB62BB6A002B24D0BB6A5A1E2D
:105A1000FB6A9A63FB6A1B68002B04D101F0B8FA99
:105A20000246FB6A9A60FB6A1B69002B0FD0FB6A77
:105A30001033184600F074FF0346002B07D0544B78
:105A40004FF080521A60BFF34F8FBFF36F8F02F099
:105A500039FA012397E03B68002B11D13B6B002BF7
:105A60000AD04FF0500383F31188BFF36F8FBFF359
:105A70004F8F7B6100BFFEE702F024FA002382E033
:105A80007B6B002B06D107F10C03184600F0ACFF2E
:105A900001237B6302F016FA00F018FD02F0E2F930
:105AA000FB6A93F844305BB2B3F1FF3F03D1FB6A6A
:105AB000002283F84420FB6A93F845305BB2B3F1CF
:105AC000FF3F03D1FB6A002283F8452002F0FAF978
:105AD0003A4607F10C031146184600F09BFF0346B7
